
Track4.elf:     file format elf32-avr

Sections:
Idx Name          Size      VMA       LMA       File off  Algn
  0 .data         00000000  00800100  00800100  0000032a  2**0
                  CONTENTS, ALLOC, LOAD, DATA
  1 .text         000002d6  00000000  00000000  00000054  2**1
                  CONTENTS, ALLOC, LOAD, READONLY, CODE
  2 .comment      00000030  00000000  00000000  0000032a  2**0
                  CONTENTS, READONLY
  3 .note.gnu.avr.deviceinfo 0000003c  00000000  00000000  0000035c  2**2
                  CONTENTS, READONLY
  4 .debug_aranges 00000098  00000000  00000000  00000398  2**0
                  CONTENTS, READONLY, DEBUGGING
  5 .debug_info   00000df9  00000000  00000000  00000430  2**0
                  CONTENTS, READONLY, DEBUGGING
  6 .debug_abbrev 00000900  00000000  00000000  00001229  2**0
                  CONTENTS, READONLY, DEBUGGING
  7 .debug_line   00000863  00000000  00000000  00001b29  2**0
                  CONTENTS, READONLY, DEBUGGING
  8 .debug_frame  00000148  00000000  00000000  0000238c  2**2
                  CONTENTS, READONLY, DEBUGGING
  9 .debug_str    0000809a  00000000  00000000  000024d4  2**0
                  CONTENTS, READONLY, DEBUGGING
 10 .debug_loc    000002a7  00000000  00000000  0000a56e  2**0
                  CONTENTS, READONLY, DEBUGGING
 11 .debug_ranges 00000088  00000000  00000000  0000a815  2**0
                  CONTENTS, READONLY, DEBUGGING
 12 .debug_macro  00002e77  00000000  00000000  0000a89d  2**0
                  CONTENTS, READONLY, DEBUGGING

Disassembly of section .text:

00000000 <__vectors>:
   0:	45 c0       	rjmp	.+138    	; 0x8c <__ctors_end>
   2:	00 00       	nop
   4:	4b c0       	rjmp	.+150    	; 0x9c <__bad_interrupt>
   6:	00 00       	nop
   8:	49 c0       	rjmp	.+146    	; 0x9c <__bad_interrupt>
   a:	00 00       	nop
   c:	47 c0       	rjmp	.+142    	; 0x9c <__bad_interrupt>
   e:	00 00       	nop
  10:	45 c0       	rjmp	.+138    	; 0x9c <__bad_interrupt>
  12:	00 00       	nop
  14:	43 c0       	rjmp	.+134    	; 0x9c <__bad_interrupt>
  16:	00 00       	nop
  18:	41 c0       	rjmp	.+130    	; 0x9c <__bad_interrupt>
  1a:	00 00       	nop
  1c:	3f c0       	rjmp	.+126    	; 0x9c <__bad_interrupt>
  1e:	00 00       	nop
  20:	3d c0       	rjmp	.+122    	; 0x9c <__bad_interrupt>
  22:	00 00       	nop
  24:	3b c0       	rjmp	.+118    	; 0x9c <__bad_interrupt>
  26:	00 00       	nop
  28:	39 c0       	rjmp	.+114    	; 0x9c <__bad_interrupt>
  2a:	00 00       	nop
  2c:	37 c0       	rjmp	.+110    	; 0x9c <__bad_interrupt>
  2e:	00 00       	nop
  30:	35 c0       	rjmp	.+106    	; 0x9c <__bad_interrupt>
  32:	00 00       	nop
  34:	33 c0       	rjmp	.+102    	; 0x9c <__bad_interrupt>
  36:	00 00       	nop
  38:	31 c0       	rjmp	.+98     	; 0x9c <__bad_interrupt>
  3a:	00 00       	nop
  3c:	2f c0       	rjmp	.+94     	; 0x9c <__bad_interrupt>
  3e:	00 00       	nop
  40:	2d c0       	rjmp	.+90     	; 0x9c <__bad_interrupt>
  42:	00 00       	nop
  44:	2b c0       	rjmp	.+86     	; 0x9c <__bad_interrupt>
  46:	00 00       	nop
  48:	29 c0       	rjmp	.+82     	; 0x9c <__bad_interrupt>
  4a:	00 00       	nop
  4c:	27 c0       	rjmp	.+78     	; 0x9c <__bad_interrupt>
  4e:	00 00       	nop
  50:	25 c0       	rjmp	.+74     	; 0x9c <__bad_interrupt>
  52:	00 00       	nop
  54:	23 c0       	rjmp	.+70     	; 0x9c <__bad_interrupt>
  56:	00 00       	nop
  58:	21 c0       	rjmp	.+66     	; 0x9c <__bad_interrupt>
  5a:	00 00       	nop
  5c:	1f c0       	rjmp	.+62     	; 0x9c <__bad_interrupt>
  5e:	00 00       	nop
  60:	1d c0       	rjmp	.+58     	; 0x9c <__bad_interrupt>
  62:	00 00       	nop
  64:	1b c0       	rjmp	.+54     	; 0x9c <__bad_interrupt>
  66:	00 00       	nop
  68:	19 c0       	rjmp	.+50     	; 0x9c <__bad_interrupt>
  6a:	00 00       	nop
  6c:	17 c0       	rjmp	.+46     	; 0x9c <__bad_interrupt>
  6e:	00 00       	nop
  70:	15 c0       	rjmp	.+42     	; 0x9c <__bad_interrupt>
  72:	00 00       	nop
  74:	13 c0       	rjmp	.+38     	; 0x9c <__bad_interrupt>
  76:	00 00       	nop
  78:	11 c0       	rjmp	.+34     	; 0x9c <__bad_interrupt>
  7a:	00 00       	nop
  7c:	0f c0       	rjmp	.+30     	; 0x9c <__bad_interrupt>
  7e:	00 00       	nop
  80:	0d c0       	rjmp	.+26     	; 0x9c <__bad_interrupt>
  82:	00 00       	nop
  84:	0b c0       	rjmp	.+22     	; 0x9c <__bad_interrupt>
  86:	00 00       	nop
  88:	09 c0       	rjmp	.+18     	; 0x9c <__bad_interrupt>
	...

0000008c <__ctors_end>:
  8c:	11 24       	eor	r1, r1
  8e:	1f be       	out	0x3f, r1	; 63
  90:	cf ef       	ldi	r28, 0xFF	; 255
  92:	d0 e1       	ldi	r29, 0x10	; 16
  94:	de bf       	out	0x3e, r29	; 62
  96:	cd bf       	out	0x3d, r28	; 61
  98:	f4 d0       	rcall	.+488    	; 0x282 <main>
  9a:	1b c1       	rjmp	.+566    	; 0x2d2 <_exit>

0000009c <__bad_interrupt>:
  9c:	b1 cf       	rjmp	.-158    	; 0x0 <__vectors>

0000009e <Init_adc>:
void displayOff()
{
	spi_slaveSelect(0);		// Select display chip
	spi_write(0x0C);		// Register 0B: Shutdown register
	spi_write(0x00);		// -> 1 = Normal operation
	spi_slaveDeSelect(0);	// Deselect display chip
  9e:	81 ee       	ldi	r24, 0xE1	; 225
  a0:	87 b9       	out	0x07, r24	; 7
  a2:	86 ee       	ldi	r24, 0xE6	; 230
  a4:	86 b9       	out	0x06, r24	; 6
  a6:	08 95       	ret

000000a8 <wait>:
  a8:	18 16       	cp	r1, r24
  aa:	19 06       	cpc	r1, r25
  ac:	6c f4       	brge	.+26     	; 0xc8 <wait+0x20>
  ae:	20 e0       	ldi	r18, 0x00	; 0
  b0:	30 e0       	ldi	r19, 0x00	; 0
  b2:	ef ec       	ldi	r30, 0xCF	; 207
  b4:	f7 e0       	ldi	r31, 0x07	; 7
  b6:	31 97       	sbiw	r30, 0x01	; 1
  b8:	f1 f7       	brne	.-4      	; 0xb6 <wait+0xe>
  ba:	00 c0       	rjmp	.+0      	; 0xbc <wait+0x14>
  bc:	00 00       	nop
  be:	2f 5f       	subi	r18, 0xFF	; 255
  c0:	3f 4f       	sbci	r19, 0xFF	; 255
  c2:	28 17       	cp	r18, r24
  c4:	39 07       	cpc	r19, r25
  c6:	a9 f7       	brne	.-22     	; 0xb2 <wait+0xa>
  c8:	08 95       	ret

000000ca <spi_masterInit>:
  ca:	8f ef       	ldi	r24, 0xFF	; 255
  cc:	87 bb       	out	0x17, r24	; 23
  ce:	bb 98       	cbi	0x17, 3	; 23
  d0:	c0 9a       	sbi	0x18, 0	; 24
  d2:	82 e5       	ldi	r24, 0x52	; 82
  d4:	8d b9       	out	0x0d, r24	; 13
  d6:	08 95       	ret

000000d8 <spi_write>:
  d8:	8f b9       	out	0x0f, r24	; 15
  da:	77 9b       	sbis	0x0e, 7	; 14
  dc:	fe cf       	rjmp	.-4      	; 0xda <spi_write+0x2>
  de:	08 95       	ret

000000e0 <spi_slaveSelect>:
  e0:	98 b3       	in	r25, 0x18	; 24
  e2:	21 e0       	ldi	r18, 0x01	; 1
  e4:	30 e0       	ldi	r19, 0x00	; 0
  e6:	02 c0       	rjmp	.+4      	; 0xec <spi_slaveSelect+0xc>
  e8:	22 0f       	add	r18, r18
  ea:	33 1f       	adc	r19, r19
  ec:	8a 95       	dec	r24
  ee:	e2 f7       	brpl	.-8      	; 0xe8 <spi_slaveSelect+0x8>
  f0:	20 95       	com	r18
  f2:	29 23       	and	r18, r25
  f4:	28 bb       	out	0x18, r18	; 24
  f6:	08 95       	ret

000000f8 <spi_slaveDeSelect>:
  f8:	98 b3       	in	r25, 0x18	; 24
  fa:	21 e0       	ldi	r18, 0x01	; 1
  fc:	30 e0       	ldi	r19, 0x00	; 0
  fe:	02 c0       	rjmp	.+4      	; 0x104 <spi_slaveDeSelect+0xc>
 100:	22 0f       	add	r18, r18
 102:	33 1f       	adc	r19, r19
 104:	8a 95       	dec	r24
 106:	e2 f7       	brpl	.-8      	; 0x100 <spi_slaveDeSelect+0x8>
 108:	29 2b       	or	r18, r25
 10a:	28 bb       	out	0x18, r18	; 24
 10c:	08 95       	ret

0000010e <displayDriverInit>:
 10e:	80 e0       	ldi	r24, 0x00	; 0
 110:	e7 df       	rcall	.-50     	; 0xe0 <spi_slaveSelect>
 112:	89 e0       	ldi	r24, 0x09	; 9
 114:	e1 df       	rcall	.-62     	; 0xd8 <spi_write>
 116:	8f ef       	ldi	r24, 0xFF	; 255
 118:	df df       	rcall	.-66     	; 0xd8 <spi_write>
 11a:	80 e0       	ldi	r24, 0x00	; 0
 11c:	ed df       	rcall	.-38     	; 0xf8 <spi_slaveDeSelect>
 11e:	80 e0       	ldi	r24, 0x00	; 0
 120:	df df       	rcall	.-66     	; 0xe0 <spi_slaveSelect>
 122:	8a e0       	ldi	r24, 0x0A	; 10
 124:	d9 df       	rcall	.-78     	; 0xd8 <spi_write>
 126:	8f e0       	ldi	r24, 0x0F	; 15
 128:	d7 df       	rcall	.-82     	; 0xd8 <spi_write>
 12a:	80 e0       	ldi	r24, 0x00	; 0
 12c:	e5 df       	rcall	.-54     	; 0xf8 <spi_slaveDeSelect>
 12e:	80 e0       	ldi	r24, 0x00	; 0
 130:	d7 df       	rcall	.-82     	; 0xe0 <spi_slaveSelect>
 132:	8b e0       	ldi	r24, 0x0B	; 11
 134:	d1 df       	rcall	.-94     	; 0xd8 <spi_write>
 136:	83 e0       	ldi	r24, 0x03	; 3
 138:	cf df       	rcall	.-98     	; 0xd8 <spi_write>
 13a:	80 e0       	ldi	r24, 0x00	; 0
 13c:	dd df       	rcall	.-70     	; 0xf8 <spi_slaveDeSelect>
 13e:	80 e0       	ldi	r24, 0x00	; 0
 140:	cf df       	rcall	.-98     	; 0xe0 <spi_slaveSelect>
 142:	8c e0       	ldi	r24, 0x0C	; 12
 144:	c9 df       	rcall	.-110    	; 0xd8 <spi_write>
 146:	81 e0       	ldi	r24, 0x01	; 1
 148:	c7 df       	rcall	.-114    	; 0xd8 <spi_write>
 14a:	80 e0       	ldi	r24, 0x00	; 0
 14c:	d5 cf       	rjmp	.-86     	; 0xf8 <spi_slaveDeSelect>
 14e:	08 95       	ret

00000150 <writeLedDisplay>:
}

void writeLedDisplay(int value)
{
 150:	af 92       	push	r10
 152:	bf 92       	push	r11
 154:	cf 92       	push	r12
 156:	df 92       	push	r13
 158:	ef 92       	push	r14
 15a:	ff 92       	push	r15
 15c:	0f 93       	push	r16
 15e:	1f 93       	push	r17
 160:	cf 93       	push	r28
 162:	df 93       	push	r29
 164:	ec 01       	movw	r28, r24
		int isNegative = 0;
		if(value < 0)
 166:	99 23       	and	r25, r25
 168:	74 f4       	brge	.+28     	; 0x186 <writeLedDisplay+0x36>
		{
			value = value*-1;
 16a:	d1 95       	neg	r29
 16c:	c1 95       	neg	r28
 16e:	d1 09       	sbc	r29, r1
			if(value>=1000)
 170:	c8 3e       	cpi	r28, 0xE8	; 232
 172:	83 e0       	ldi	r24, 0x03	; 3
 174:	d8 07       	cpc	r29, r24
 176:	0c f4       	brge	.+2      	; 0x17a <writeLedDisplay+0x2a>
 178:	5c c0       	rjmp	.+184    	; 0x232 <writeLedDisplay+0xe2>
				value = value/10;
 17a:	ce 01       	movw	r24, r28
 17c:	6a e0       	ldi	r22, 0x0A	; 10
 17e:	70 e0       	ldi	r23, 0x00	; 0
 180:	81 d0       	rcall	.+258    	; 0x284 <__divmodhi4>
 182:	eb 01       	movw	r28, r22
 184:	56 c0       	rjmp	.+172    	; 0x232 <writeLedDisplay+0xe2>
			isNegative = 1;
		}

		// write 4-digit data
		int i = 1;
		for (i; i <= 4 && value; i++)
 186:	89 2b       	or	r24, r25
 188:	09 f4       	brne	.+2      	; 0x18c <writeLedDisplay+0x3c>
 18a:	44 c0       	rjmp	.+136    	; 0x214 <writeLedDisplay+0xc4>
	spi_slaveDeSelect(0);	// Deselect display chip
}

void writeLedDisplay(int value)
{
		int isNegative = 0;
 18c:	c1 2c       	mov	r12, r1
 18e:	d1 2c       	mov	r13, r1
 190:	03 c0       	rjmp	.+6      	; 0x198 <writeLedDisplay+0x48>
			isNegative = 1;
		}

		// write 4-digit data
		int i = 1;
		for (i; i <= 4 && value; i++)
 192:	cc 24       	eor	r12, r12
 194:	c3 94       	inc	r12
 196:	d1 2c       	mov	r13, r1
		{
			spi_slaveSelect(0);			// Select display chip
 198:	80 e0       	ldi	r24, 0x00	; 0
 19a:	a2 df       	rcall	.-188    	; 0xe0 <spi_slaveSelect>
			spi_write(i);				// digit address: (digit place)
 19c:	81 e0       	ldi	r24, 0x01	; 1
 19e:	9c df       	rcall	.-200    	; 0xd8 <spi_write>
			spi_write(value%10);			// digit value: i (= digit place)
 1a0:	ce 01       	movw	r24, r28
 1a2:	6a e0       	ldi	r22, 0x0A	; 10
 1a4:	70 e0       	ldi	r23, 0x00	; 0
 1a6:	6e d0       	rcall	.+220    	; 0x284 <__divmodhi4>
 1a8:	d6 2f       	mov	r29, r22
 1aa:	c7 2f       	mov	r28, r23
 1ac:	95 df       	rcall	.-214    	; 0xd8 <spi_write>
			spi_slaveDeSelect(0);		// Deselect display chip
 1ae:	80 e0       	ldi	r24, 0x00	; 0
 1b0:	a3 df       	rcall	.-186    	; 0xf8 <spi_slaveDeSelect>
			value /= 10;
 1b2:	0d 2f       	mov	r16, r29
 1b4:	1c 2f       	mov	r17, r28
			isNegative = 1;
		}

		// write 4-digit data
		int i = 1;
		for (i; i <= 4 && value; i++)
 1b6:	c2 e0       	ldi	r28, 0x02	; 2
 1b8:	d0 e0       	ldi	r29, 0x00	; 0
		{
			spi_slaveSelect(0);			// Select display chip
			spi_write(i);				// digit address: (digit place)
			spi_write(value%10);			// digit value: i (= digit place)
 1ba:	0f 2e       	mov	r0, r31
 1bc:	fa e0       	ldi	r31, 0x0A	; 10
 1be:	af 2e       	mov	r10, r31
 1c0:	b1 2c       	mov	r11, r1
 1c2:	f0 2d       	mov	r31, r0
 1c4:	12 c0       	rjmp	.+36     	; 0x1ea <writeLedDisplay+0x9a>

		// write 4-digit data
		int i = 1;
		for (i; i <= 4 && value; i++)
		{
			spi_slaveSelect(0);			// Select display chip
 1c6:	80 e0       	ldi	r24, 0x00	; 0
 1c8:	8b df       	rcall	.-234    	; 0xe0 <spi_slaveSelect>
			spi_write(i);				// digit address: (digit place)
 1ca:	8c 2f       	mov	r24, r28
 1cc:	85 df       	rcall	.-246    	; 0xd8 <spi_write>
			spi_write(value%10);			// digit value: i (= digit place)
 1ce:	c8 01       	movw	r24, r16
 1d0:	b5 01       	movw	r22, r10
 1d2:	58 d0       	rcall	.+176    	; 0x284 <__divmodhi4>
 1d4:	e6 2e       	mov	r14, r22
 1d6:	f7 2e       	mov	r15, r23
 1d8:	7f df       	rcall	.-258    	; 0xd8 <spi_write>
			spi_slaveDeSelect(0);		// Deselect display chip
 1da:	80 e0       	ldi	r24, 0x00	; 0
 1dc:	8d df       	rcall	.-230    	; 0xf8 <spi_slaveDeSelect>
			value /= 10;
 1de:	0e 2d       	mov	r16, r14
 1e0:	1f 2d       	mov	r17, r15
			isNegative = 1;
		}

		// write 4-digit data
		int i = 1;
		for (i; i <= 4 && value; i++)
 1e2:	21 96       	adiw	r28, 0x01	; 1
 1e4:	c5 30       	cpi	r28, 0x05	; 5
 1e6:	d1 05       	cpc	r29, r1
 1e8:	51 f1       	breq	.+84     	; 0x23e <writeLedDisplay+0xee>
 1ea:	01 15       	cp	r16, r1
 1ec:	11 05       	cpc	r17, r1
 1ee:	59 f7       	brne	.-42     	; 0x1c6 <writeLedDisplay+0x76>
			spi_write(i);				// digit address: (digit place)
			spi_write(value%10);			// digit value: i (= digit place)
			spi_slaveDeSelect(0);		// Deselect display chip
			value /= 10;
		}
		if(isNegative)
 1f0:	cd 28       	or	r12, r13
 1f2:	61 f0       	breq	.+24     	; 0x20c <writeLedDisplay+0xbc>
		{
			spi_slaveSelect(0);			// Select display chip
 1f4:	80 e0       	ldi	r24, 0x00	; 0
 1f6:	74 df       	rcall	.-280    	; 0xe0 <spi_slaveSelect>
			spi_write(i++);				// digit address: (digit place)
 1f8:	8e 01       	movw	r16, r28
 1fa:	0f 5f       	subi	r16, 0xFF	; 255
 1fc:	1f 4f       	sbci	r17, 0xFF	; 255
 1fe:	8c 2f       	mov	r24, r28
 200:	6b df       	rcall	.-298    	; 0xd8 <spi_write>
			spi_write(10);			// digit value: i (= digit place)
 202:	8a e0       	ldi	r24, 0x0A	; 10
 204:	69 df       	rcall	.-302    	; 0xd8 <spi_write>
			spi_slaveDeSelect(0);		// Deselect display chip
 206:	80 e0       	ldi	r24, 0x00	; 0
 208:	77 df       	rcall	.-274    	; 0xf8 <spi_slaveDeSelect>
			value /= 10;
		}
		if(isNegative)
		{
			spi_slaveSelect(0);			// Select display chip
			spi_write(i++);				// digit address: (digit place)
 20a:	e8 01       	movw	r28, r16
			spi_write(10);			// digit value: i (= digit place)
			spi_slaveDeSelect(0);		// Deselect display chip
		}
		while(i<4)
 20c:	c4 30       	cpi	r28, 0x04	; 4
 20e:	d1 05       	cpc	r29, r1
 210:	1c f0       	brlt	.+6      	; 0x218 <writeLedDisplay+0xc8>
 212:	17 c0       	rjmp	.+46     	; 0x242 <writeLedDisplay+0xf2>
				value = value/10;
			isNegative = 1;
		}

		// write 4-digit data
		int i = 1;
 214:	c1 e0       	ldi	r28, 0x01	; 1
 216:	d0 e0       	ldi	r29, 0x00	; 0
			spi_write(10);			// digit value: i (= digit place)
			spi_slaveDeSelect(0);		// Deselect display chip
		}
		while(i<4)
		{
			spi_slaveSelect(0); // Select display chip
 218:	80 e0       	ldi	r24, 0x00	; 0
 21a:	62 df       	rcall	.-316    	; 0xe0 <spi_slaveSelect>
			spi_write(i); // digit adress: (digit place)
 21c:	8c 2f       	mov	r24, r28
 21e:	5c df       	rcall	.-328    	; 0xd8 <spi_write>
			spi_write(31); // digit value: 0
 220:	8f e1       	ldi	r24, 0x1F	; 31
 222:	5a df       	rcall	.-332    	; 0xd8 <spi_write>
			spi_slaveDeSelect(0); // Deselect display chip
 224:	80 e0       	ldi	r24, 0x00	; 0
 226:	68 df       	rcall	.-304    	; 0xf8 <spi_slaveDeSelect>
			i++;
 228:	21 96       	adiw	r28, 0x01	; 1
			spi_slaveSelect(0);			// Select display chip
			spi_write(i++);				// digit address: (digit place)
			spi_write(10);			// digit value: i (= digit place)
			spi_slaveDeSelect(0);		// Deselect display chip
		}
		while(i<4)
 22a:	c4 30       	cpi	r28, 0x04	; 4
 22c:	d1 05       	cpc	r29, r1
 22e:	a4 f3       	brlt	.-24     	; 0x218 <writeLedDisplay+0xc8>
 230:	08 c0       	rjmp	.+16     	; 0x242 <writeLedDisplay+0xf2>
			isNegative = 1;
		}

		// write 4-digit data
		int i = 1;
		for (i; i <= 4 && value; i++)
 232:	20 97       	sbiw	r28, 0x00	; 0
 234:	09 f0       	breq	.+2      	; 0x238 <writeLedDisplay+0xe8>
 236:	ad cf       	rjmp	.-166    	; 0x192 <writeLedDisplay+0x42>
				value = value/10;
			isNegative = 1;
		}

		// write 4-digit data
		int i = 1;
 238:	c1 e0       	ldi	r28, 0x01	; 1
 23a:	d0 e0       	ldi	r29, 0x00	; 0
 23c:	db cf       	rjmp	.-74     	; 0x1f4 <writeLedDisplay+0xa4>
			spi_write(i);				// digit address: (digit place)
			spi_write(value%10);			// digit value: i (= digit place)
			spi_slaveDeSelect(0);		// Deselect display chip
			value /= 10;
		}
		if(isNegative)
 23e:	cd 28       	or	r12, r13
 240:	c9 f6       	brne	.-78     	; 0x1f4 <writeLedDisplay+0xa4>
			spi_write(31); // digit value: 0
			spi_slaveDeSelect(0); // Deselect display chip
			i++;
		}

}
 242:	df 91       	pop	r29
 244:	cf 91       	pop	r28
 246:	1f 91       	pop	r17
 248:	0f 91       	pop	r16
 24a:	ff 90       	pop	r15
 24c:	ef 90       	pop	r14
 24e:	df 90       	pop	r13
 250:	cf 90       	pop	r12
 252:	bf 90       	pop	r11
 254:	af 90       	pop	r10
 256:	08 95       	ret

00000258 <C1>:

void C1(void)
{

	DDRB=0x01;						// Set PB0 pin as output for display select
 258:	81 e0       	ldi	r24, 0x01	; 1
 25a:	87 bb       	out	0x17, r24	; 23
	spi_masterInit();				// Initialize spi module
 25c:	36 df       	rcall	.-404    	; 0xca <spi_masterInit>
	displayDriverInit();			// Initialize display chip
 25e:	57 df       	rcall	.-338    	; 0x10e <displayDriverInit>
	
	DDRF = 0x00;					// set PORTF for input (ADC)
 260:	10 92 61 00 	sts	0x0061, r1	; 0x800061 <__TEXT_REGION_LENGTH__+0x7e0061>
	DDRA = 0xFF;					// set PORTA for output
 264:	8f ef       	ldi	r24, 0xFF	; 255
 266:	8a bb       	out	0x1a, r24	; 26
	Init_adc();						// initialize ADC
 268:	1a df       	rcall	.-460    	; 0x9e <Init_adc>

	while (1)
	{
		writeLedDisplay(-ADCH);
 26a:	85 b1       	in	r24, 0x05	; 5
 26c:	90 e0       	ldi	r25, 0x00	; 0
 26e:	91 95       	neg	r25
 270:	81 95       	neg	r24
 272:	91 09       	sbc	r25, r1
 274:	6d df       	rcall	.-294    	; 0x150 <writeLedDisplay>
		PORTA = ADCH;
 276:	85 b1       	in	r24, 0x05	; 5
 278:	8b bb       	out	0x1b, r24	; 27
		wait(500);
 27a:	84 ef       	ldi	r24, 0xF4	; 244
 27c:	91 e0       	ldi	r25, 0x01	; 1
 27e:	14 df       	rcall	.-472    	; 0xa8 <wait>
	}
 280:	f4 cf       	rjmp	.-24     	; 0x26a <C1+0x12>

00000282 <main>:
void B3(void);
void C1(void);

int main (void)
{
	C1();
 282:	ea df       	rcall	.-44     	; 0x258 <C1>

00000284 <__divmodhi4>:
 284:	97 fb       	bst	r25, 7
 286:	07 2e       	mov	r0, r23
 288:	16 f4       	brtc	.+4      	; 0x28e <__divmodhi4+0xa>
 28a:	00 94       	com	r0
 28c:	06 d0       	rcall	.+12     	; 0x29a <__divmodhi4_neg1>
 28e:	77 fd       	sbrc	r23, 7
 290:	08 d0       	rcall	.+16     	; 0x2a2 <__divmodhi4_neg2>
 292:	0b d0       	rcall	.+22     	; 0x2aa <__udivmodhi4>
 294:	07 fc       	sbrc	r0, 7
 296:	05 d0       	rcall	.+10     	; 0x2a2 <__divmodhi4_neg2>
 298:	3e f4       	brtc	.+14     	; 0x2a8 <__divmodhi4_exit>

0000029a <__divmodhi4_neg1>:
 29a:	90 95       	com	r25
 29c:	81 95       	neg	r24
 29e:	9f 4f       	sbci	r25, 0xFF	; 255
 2a0:	08 95       	ret

000002a2 <__divmodhi4_neg2>:
 2a2:	70 95       	com	r23
 2a4:	61 95       	neg	r22
 2a6:	7f 4f       	sbci	r23, 0xFF	; 255

000002a8 <__divmodhi4_exit>:
 2a8:	08 95       	ret

000002aa <__udivmodhi4>:
 2aa:	aa 1b       	sub	r26, r26
 2ac:	bb 1b       	sub	r27, r27
 2ae:	51 e1       	ldi	r21, 0x11	; 17
 2b0:	07 c0       	rjmp	.+14     	; 0x2c0 <__udivmodhi4_ep>

000002b2 <__udivmodhi4_loop>:
 2b2:	aa 1f       	adc	r26, r26
 2b4:	bb 1f       	adc	r27, r27
 2b6:	a6 17       	cp	r26, r22
 2b8:	b7 07       	cpc	r27, r23
 2ba:	10 f0       	brcs	.+4      	; 0x2c0 <__udivmodhi4_ep>
 2bc:	a6 1b       	sub	r26, r22
 2be:	b7 0b       	sbc	r27, r23

000002c0 <__udivmodhi4_ep>:
 2c0:	88 1f       	adc	r24, r24
 2c2:	99 1f       	adc	r25, r25
 2c4:	5a 95       	dec	r21
 2c6:	a9 f7       	brne	.-22     	; 0x2b2 <__udivmodhi4_loop>
 2c8:	80 95       	com	r24
 2ca:	90 95       	com	r25
 2cc:	bc 01       	movw	r22, r24
 2ce:	cd 01       	movw	r24, r26
 2d0:	08 95       	ret

000002d2 <_exit>:
 2d2:	f8 94       	cli

000002d4 <__stop_program>:
 2d4:	ff cf       	rjmp	.-2      	; 0x2d4 <__stop_program>
